:020000040800F2
:100000009075002045010008CD2300080D1B000855
:10001000B322000841130008F3800008000000002C
:10002000000000000000000000000000216B00083C
:10003000E114000800000000970A0008493A00088F
:100040005F0100085F0100085F0100085F01000810
:100050005F0100085F0100085F0100085F01000800
:100060005F0100085F0100085F0100085F010008F0
:100070005F0100085F0100085F0100085F010008E0
:100080005F0100085F0100085F0100085F010008D0
:100090005F0100085F0100085F0100085F010008C0
:1000A0005F0100085F0100085F0100085F010008B0
:1000B0005F0100085F0100085F0100085F010008A0
:1000C0005F0100085F0100085F0100085F01000890
:1000D0005F010008117D00085F0100085F01000852
:1000E0005F0100085F0100085F0100085F01000870
:1000F0005F0100085F0100085F0100085F01000860
:100100005F0100085F0100085F0100085F0100084F
:100110005F0100085F0100085F0100082D740008FE
:100120005F0100085F0100085F0100085F0100082F
:10013000DFF80CD000F05EFC0048004791A50008F5
:10014000907500200648804706480047FEE7FEE716
:10015000FEE7FEE7FEE7FEE7FEE7FEE7FEE7FEE777
:100160006D6E00083101000872B6704762B67047C4
:10017000EFF3108072B6704780F31088704730BF7D
:10018000704720BF7047B0FA80F0704790FAA0F037
:10019000B0FA80F0704790FAA0F070472DE9F05F58
:1001A0000546002092469B468846064681464024E6
:1001B0001DE0284641464746224600F034FBB0EB9E
:1001C0000A0052465B4671EB0B0110D310461946EC
:1001D000224600F019FB2D1A67EB01084F46224614
:1001E0000120002100F010FB17EB00094E41201EFA
:1001F000A4F10104DDDC484631462A464346BDE809
:10020000F09FF0B480EA0102D20F4300B3EB410F3C
:1002100002D20346084619464B0042D0C30DDDB258
:10022000C1F3C7542C1B202C35DAC1F3160141F45D
:10023000000502B16D42C4F1200605FA06F1254120
:100240002844B3EBD05F23D0C2B1012CA0EBC35044
:1002500009DCF0BC4FF0004202EAC35200F5000096
:10026000DBB200F00BBB400000F1807000EBC3502C
:10027000A0F1807040EAD170490009E0490841EAE4
:10028000C071A0EBC35000F50000400800EBC35064
:10029000F0BC00F0EABA5142012303EB4101801A9D
:1002A000F6E7F0BC704781F00041AAE780F000401B
:1002B000A7E780EA010210B502F00042400026D014
:1002C0004B0023D04FEA106101EB1361C0F35600DD
:1002D000C3F3560340F4000043F40003A0FB0330D3
:1002E000A1F17F014FEA00401C0401D000F10100A0
:1002F00050EA134001D44000491EC3B20C0604EB7F
:10030000D010401C4008802B02D003E0002010BD1C
:1003100020F00100002900DA0020104310BD80EA1F
:10032000010202F0004330B430F0004221F00040FE
:1003300015D0A0B1C0F3C755C2F3C754C2F316011C
:10034000C0F31600651B41F4000140F400007D3548
:10035000814201D36D1C00E04900002D02DA30BC5F
:10036000002070474FF400020024814201D3091A93
:10037000144352084FEA4101F7D151B1814202D1F1
:100380004FF0004105E002D24FF0010101E06FF0B3
:10039000010104EBC55030BC184400F066BA4200BD
:1003A00005D0C0F3C7525242914201DC0020704791
:1003B00000EBC15070472DE9FE4F074681EA03006C
:1003C000C00F0E46019021F0004123F00044B81AFE
:1003D000A14105D23846314617461E460B46024615
:1003E00023F00040104304D13846314603B0BDE845
:1003F000F08F350DC5F30A00C3F30A510290401A7D
:100400000090402867DAC3F3130040F4801B019882
:10041000924620B10023D2EB030A63EB0B0B00984A
:100420005946C0F14002504600F0EEF980460C46B5
:1004300050465946009A00F006FAC0197141EF176C
:1004400085EA11533B433FD0019A4AB3009A012AEF
:1004500011DC0022801A61EB05514FF0004303EAE2
:100460000555CDE90025801841F580114246234607
:1004700000F040FABAE72E050025401B61EB0601AB
:10048000401941F58012001852412818A6F50013B2
:1004900043EB020140EAD47018EB0808644113E012
:1004A00064084FEA38084FF0000244EAC0744FEA8B
:1004B0000553801A61EB0301801841F5801149084A
:1004C0004FEA3000801859414246234603B0BDE848
:1004D000F04F00F002BA0198012240000023D0EB57
:1004E000020263EBE07301984FEAE074381A66EB9E
:1004F0000401EBE783F000435DE781F000415AE738
:100500002DE9FE4F81EA030421F0004504F0004488
:1005100023F000414FF0000A009450EA050302D096
:1005200052EA010304D10020014603B0BDE8F08F78
:10053000C1F30A53C5F30A542344A3F2F3330193DE
:10054000A0FB02B3C5F3130545F4801CC1F31301EE
:1005500041F480180CFB023300FB083E810A930A29
:1005600041EA8C5143EA8853A1FB03474FEA9C259B
:1005700005FB03734FEA982601FB06373D05260568
:1005800045EA1435BBEB06016EEB0503850E920EB2
:1005900045EA8C1542EA8812A5FB0206261E67EB87
:1005A00000070C0D44EA0334A61947EB1350C1F3BE
:1005B00013044FF000031946E5FB02014FEA03352F
:1005C00045EA1455019B4FEA0432009CA3F10C0349
:1005D000CDE900A445EA060502932B4600F08AF90E
:1005E000A3E72DE9F04D81EA030404F0004B21F06C
:1005F000004714464FF0000A23F0004150EA07027A
:1006000020D054EA01021DD0C1F30A550246C1F3BD
:100610001300C7F30A56C7F3130340F4801143F4E1
:100620008013A6EB0508101BD64608F2FD3873EBC5
:10063000010002D308F1010801E092185B41B8F112
:10064000000F03DA00200146BDE8F08D00204FF4D2
:100650008015064607460EE0B2EB040C73EB010C66
:1006600004D3121B064363EB01032F436D084FEACB
:10067000300092185B4150EA050CEDD152EA0300BC
:1006800012D082EA040083EA0105284303D1002244
:100690004FF0004308E0101B8B4102D201220023DF
:1006A00002E06FF0010253101AEB060047EB08510D
:1006B00010EB0A0041EB0B01BDE8F04D00F00DB965
:1006C00070B521F0004303430CD0C1F30A54002657
:1006D000D4EB060566EB0603D417AD1AA34102DB83
:1006E0000020014670BD001C41EB025170BDC10FDE
:1006F00080EAE0700844CA079623002100F0BEB8E3
:100700000EB5C10F80EAE0700844CA07002140F22C
:1007100033438DE80E000A460B4600F0EBF803B0B9
:1007200000BDC1F30A52C1F3130140F2FF3341F49B
:1007300080119A4201DA0020704740F233439A4216
:10074000A2F2334202DC524200F06DB89040704792
:1007500000F0004230F000400DD0C10D01F5607195
:1007600042EA01510022C0F31600520742EAD002C9
:1007700040071143704700200146704730B50029FB
:1007800004DB4FF00044404264EB0101002B04DB2A
:100790004FF00044524264EB03038B4208BF824295
:1007A00030BD000001F0004230B421F0004150EAB9
:1007B000010306D00B0DA3F56073C1F31301002BE9
:1007C00002DC30BC00207047440F44EAC104C10081
:1007D000A01830BC00EBC35000F047B830B50B4652
:1007E000014600202022012409E021FA02F59D4261
:1007F00005D303FA02F5491B04FA02F52844151E35
:10080000A2F10102F1DC30BD202A04DB203A00FA1B
:1008100002F1002070479140C2F1200320FA03F357
:10082000194390407047202A04DB203A21FA02F055
:100830000021704721FA02F3D040C2F1200291401A
:10084000084319467047202A06DBCB17203A41FAA5
:1008500002F043EAE07306E041FA02F3D040C2F14D
:10086000200291400843194670470029A8BF7047ED
:10087000401C490008BF20F00100704710B4B0FAD6
:1008800080FC00FA0CF050EA010404BF10BC704771
:1008900049B1CCF1200421FA04F411FA0CF118BF8B
:1008A000012121430843A3EB0C01CB1D4FEA00615A
:1008B0004FEA102048BF0020BCBF10BC704700EBBF
:1008C000C35010440029A4BF10BC7047401C49000D
:1008D00008BF20F0010010BC704710B5002B08DAEB
:1008E000401C41F1000192185B411A4301D120F0F4
:1008F000010010BD2DE9FF4D934611B1B1FA81F20F
:1009000002E0B0FA80F220329246FFF77DFF039AB0
:100910000746884640EA0B0011435B46084304D172
:100920003846414604B0BDE8F08D114653EA020056
:1009300016D0CAF140025846FFF775FF04460D462F
:100940004FF00106584652460399FFF75DFF0843F2
:1009500000D10026344345EAE675274345EA0808F6
:100960000E984FF00005A0EB0A014FEAD7200A319C
:100970004FEA47532A4640EA48504FEAD82402D566
:1009800000200146CEE7281844EB0151DDE90C4573
:10099000001904B06941BDE8F04D9EE7C1F30A5269
:1009A000C1F3130140F2FF3341F480119A4202DA9D
:1009B00000200146704740F233439A42A2F233428C
:1009C00002DC5242FFF72FBFFFF71EBF30B50029F0
:1009D00004DB4FF00044404264EB0101002B04DBD8
:1009E0004FF00044524264EB0303994208BF904227
:1009F00030BD0000064C074D06E0E06840F0010302
:100A000094E8070098471034AC42F6D3FFF794FB04
:100A1000CCB70008ECB7000870B501EB020410F881
:100A2000015B15F0070301D110F8013B2A1106D133
:100A300010F8012B03E010F8016B01F8016B5B1E4D
:100A4000F9D12B0705D40023521E0FD401F8013B26
:100A5000FAE710F8013B02F10202A1EB030303E005
:100A600013F8015B01F8015B521EF9D5A142D6D300
:100A7000002070BD18484FF0FF010170002080F386
:100A800009881648016881F3088815484FF080519D
:100A9000016062B6FEE772B6EFF3098028B1203834
:100AA00080E8F00F0F490968086000B50E488047DC
:100AB0005DF804EB0D480E490A78027009480D49AB
:100AC0000A680260106890E8F00F203080F309880F
:100AD0004EF0040E62B6704722ED00E034010020B3
:100AE00004ED00E0040200205535000892010020CA
:100AF00093010020080200202DE9F041304801F068
:100B00007DFB2F48B0F90000FFF7F1FD2D4EB062DC
:100B10002D49FFF776FB6FF00D01FFF740FCFFF763
:100B200017FE4FF03332294BFFF7EAFC0022284B27
:100B3000FFF7E6FC274A284BFFF753FDFFF732FE8D
:100B4000F062264801F077FB2448B0F90200FFF775
:100B5000CEFD2349FFF755FBFFF7FAFD4FF0663254
:100B6000204BFFF73EFDFFF71DFE70620146F06A65
:100B700001F022F8706AFFF7EBFD0D46316B044679
:100B80000F46F06AFFF78FFBFFF7E2FD4FF0FF32F1
:100B9000FFF796FD22462B46FFF70DFC124A134B3A
:100BA000FFF7AEFC04460D463846FFF7D1FD22465E
:100BB0002B46FFF700FCFFF7F5FD3063BDE8F08141
:100BC00044000020E800002000005C433333F33F82
:100BD000008066401F85EB51B81E09404A00002086
:100BE00000009041666630407B14AE47E17A843F56
:100BF00008B56B46002206A1084801F08BFE0748A5
:100C00006B46002206A1783001F084FE08BD00008A
:100C100053454D5F4B455932000000000808002045
:100C20005573657220576176650000001FB5A94EA7
:100C3000DFF89C927404DFF8A082A84D4FF0080AF8
:100C40004FF0100B012703AB0093002202AB1146BB
:100C5000A34801F0B7FE002203ABCDE900230A232D
:100C60001146104602F022FD9C490E31087878B1F9
:100C700001284DD0022873D00928E4D1487878B3F0
:100C800001286ED00228DED1491C01F03BFBDAE7D7
:100C900048780928D7D2DFE800F005080D12171CA4
:100CA000242B350005F05AF8CDE7491C012000F04F
:100CB000E9FEC8E7491C022000F0A0FEC3E7491C7A
:100CC000032006F0ABFFBEE7491C042006F070FFCE
:100CD000B9E7C9F814A0C9F814B082480760B2E7B0
:100CE000E9E0C9F810A0C9F810B07F480760AAE78A
:100CF000A8890128A7D1B8F8000006F00BF8002059
:100D0000A881A0E7B8F8000005F05CFFAF819AE782
:100D10004878132897D2DFE800F00A0B131B252D23
:100D2000343C444C545C646C747C848C94008AE73E
:100D30008878A0F12401912985D2A6F8340C82E7A5
:100D40008878A0F124019129A1D2A6F8380C7AE77D
:100D50008878A0F12401912999D2A6F83C0C72E779
:100D600077E0B1E08878A0F1240191298FD2A6F82C
:100D7000400C68E78878A0F125018F2987D2A087E9
:100D800061E78878A0F125018F298DD2A4F8400071
:100D900059E78878A0F125018F2985D2A4F8340479
:100DA00051E78878A0F125018F2987D2A4F838046B
:100DB00049E78878A0F125018F2984D2A4F83C0462
:100DC00041E78878A0F125018F2988D2A4F8400452
:100DD00039E78878A0F125018F2988D2A4F8340852
:100DE00031E78878A0F125018F298AD2A4F8380844
:100DF00029E78878A0F125018F2988D2A4F83C083A
:100E000021E78878A0F125018F2990D2A4F8400825
:100E100019E78878A0F125018F2988D2A4F8340C2D
:100E200011E78878A0F125018F2988D2A4F8380C21
:100E300009E78878A0F125018F2988D2A4F83C0C15
:100E400001E78878A0F125018F2988D2A4F8400C09
:100E5000F9E6487801280DD0022816D003281DD0C5
:100E6000042886D18878A0F110010E2988D21F4964
:100E70000880E8E68878811F192901D21C4908807A
:100E80001C4908801C490880DDE68878811F1929E3
:100E900001D21A490880A8F80000D4E68878411EDB
:100EA000272902D20D49183148600C481830406893
:100EB00000F03AFEC7E66F70094803AA4FF40071CC
:100EC000783001F047FEBEE600206870BBE6000007
:100ED00000100140002001405E00002014000020AE
:100EE00030080020140C0140100C01406A00002062
:100EF00060000020640000206600002062000020E6
:100F000010B58AB0002106A809AB032205910EC0D6
:100F10000B463D4801AC4FF40062CC210FC40423C2
:100F200000930023394A3AA13D4801F075FF0021A2
:100F300006A809AB032205910EC00223394801AA75
:100F4000DC01192113C204930F23354800930023B9
:100F5000354A36A1C83001F05FFF002106A809AB71
:100F6000032205910EC00B464022CDE90323062142
:100F70003248CDE901010E2300930023304A31A10C
:100F8000354801F049FF002106A809AB032205916D
:100F90000EC00B46CDE9034330481921CDE90020AE
:100FA000029100232E4A2FA1334801F035FF002182
:100FB00006A809AB032205910EC00B462F4801AAD3
:100FC000192113C2049306232B48009300232C4AB3
:100FD0002CA1C83001F020FF002106A809AB032294
:100FE00005910EC00B462B4801AC80220C210FC48A
:100FF0000723194800930023274A28A1C83801F085
:101000000BFF0AB010BD0000501B0020AD100008FF
:10101000417070205461736B2047554900000000F7
:1010200058030020503B002015110008417070202B
:101030005461736B2053484F54000000503F002010
:10104000E1100008417070205461736B204B4559CA
:10105000424F415244000000400700205040002011
:101060002D0C0008417070205461736B20436F6E2B
:1010700074726F6C00000000E804002050440020EF
:10108000F9100008417070205461736B204B616C43
:101090006D616E0050480020C9100008417070203A
:1010A0005461736B20486569676874000EB502ABC4
:1010B0000093002201AB1146024801F083FC07F0C7
:1010C00077FFF4E7A80800200EB502AB00930022DA
:1010D00001AB1146014801F075FCF6E7D00800208D
:1010E0000EB502AB0022CDE90023134600210122F8
:1010F000084602F0DBFAF4E70EB502AB00930022DB
:1011000001AB1146024801F05DFCFFF7F5FCF4E786
:10111000580800208AB01C4C09AB0093002208AB91
:1011200011461A4801F04EFCA27819A103A807F055
:10113000D3F91CA007F0C0F903A808F0D9FC60712E
:101140000A2203A91D4808F0DDFB607109A801F01F
:1011500071FB1A491A4800F016FB09A801F09CFB24
:10116000164808F0C0FB607116A007F0A5F9A0783A
:10117000401CA070002209ABCDE900230A231146D0
:10118000104602F093FAC7E7140000200808002078
:10119000303A2F7069637475726525642E626D70C4
:1011A000000000000A73746172742073686F742009
:1011B000706963747572650A0D00000028090020CB
:1011C0009D84000873686F7420706963747572651C
:1011D00020737563636573730A0D000000B5ADB0CD
:1011E00000F076F800F0ADF82CA801F0ABFDFFF7A9
:1011F00087FEFFF7FDFC06F091FF2249224800F030
:10120000A5FD21482149083000F0A0FDBDF8B0300F
:1012100000221F4902208DE80F00034602461DA14F
:101220001FA802F043FBBDF8B03000221B4902208A
:101230008DE80F0064231A4619A112A802F036FBAC
:10124000BDF8B0300022194902208DE80F0032238A
:101250001A4617A105A802F029FBBDF8B0101FA877
:1012600002F0A0FBBDF8B01012A802F09BFBBDF885
:10127000B01005A802F096FB2CA9104801F0E2FE80
:101280002DB000BDC519000834000020E119000888
:10129000218500084D7954696D65720051850008FB
:1012A0004D7954696D657232000000008D8500082B
:1012B0004D7954696D657233000000009002002082
:1012C00000B585B0684605F00FFA019805B000BD7D
:1012D00010B500F027F809F095F800F0C9FF00F00C
:1012E00065FF00F007FD00F01BFD0121084605F039
:1012F000E3F906F04BF806F0D1FE06F0F1FE01210D
:10130000402005F0B5F906F06BF806F0A9F806F0F4
:10131000BBFC06F0EFFE06F016FABDE8104004F044
:101320001DBD000010B5FFF7CBFF04490968B0FBF5
:10133000F1F0BDE8104002F09FBB000074AF000860
:10134000FEE710B500F0A0F800F004F8BDE810408A
:1013500000F098B82DE9F041104E002737807780D3
:10136000B760F7607761B76137610025FEF700FF6E
:1013700080460024776100F049F800F057F8706962
:101380000544641CA4B2002CF4D035617761B761C8
:101390004046BDE8F041FEF7EFBE00000C02002021
:1013A00003490969884201D9401A704700207047F3
:1013B0000C02002010B5FEF7DBFE04494C69FEF775
:1013C000DBFE2046BDE81040FFF7EABF0C0200201C
:1013D00010B5FFF7EFFF0446FEF7CAFE034A0021EF
:1013E0005161FEF7C9FE204610BD00000C0200202E
:1013F00010B5FEF7BDFE04498C69FEF7BDFE204620
:10140000BDE81040FFF7CCBF0C02002010B5064C21
:101410002088401C2080608810B900F05BF8A06034
:101420006088401C608010BD0C02002010B50A4C82
:101430006088401E80B2608000280CD100F04AF81D
:10144000E060A168401A6169814200D26061A169CF
:10145000814200D2A06110BD0C02002010B5FEF741
:1014600087FE0446FFF7D2FF1021054800F022FF57
:10147000FFF7DCFF2046BDE81040FEF77DBE000010
:1014800004650020FFF7EABF02490020486000F031
:1014900009B800000C0200200149486070470000B4
:1014A0000C02002010B50948016841F0807101600C
:1014B00007484FF000014160016841F001010160FF
:1014C000FFF7FEFEBDE81040FFF7E6BFFCED00E0D1
:1014D000001000E00148406870470000001000E084
:1014E00070472DE9F0410022CC7804F00F03E406A8
:1014F00001D58C7823430C884FF00F0714F0FF0FB1
:101500004FF0010C1CD005680CFA02F40E8826403E
:10151000A64211D1960007FA06F825EA080503FA53
:1015200006F848EA0505CE78282E02D0482E02D0CB
:1015300002E0446100E00461521C082AE4D3056023
:101540000A88FF2A1ED94568002202F108060CFA13
:1015500006F40E882640A64210D1960007FA06F837
:1015600025EA080503FA06F848EA0505CE78282E8C
:1015700000D14461CE78482E00D10461521C082A63
:10158000E3D34560BDE8F081F0B5154C002801DAE1
:10159000E36900E06368C0F30346420D120185B2BF
:1015A000C0F301579540032F07D0C2020CD5032288
:1015B000B240934343F0706209E023F070626368C5
:1015C00023F07063636002E0AB4343F0706201B1EB
:1015D0002A43002801DAE261F0BD6260F0BD00003C
:1015E000000001400246002092680A4200D001201B
:1015F0007047416170470161704700002DE9F04F6D
:10160000DFF828B191B04FF0FF35DBF80030B3F9C7
:1016100022100691DE69B3F924A0F469A189814200
:1016200006D8E289824203D3471AD4F8008012E038
:10163000D4E90181002970D00A8882426DD84D8892
:1016400085426AD3801A82B2486800EB8200B0F902
:101650000070B0F90250781C5FD0307EA27C014649
:1016600000FB02F9207CCDE90810B3F92A6030466E
:1016700000F096FDC0B20E90DBF8001007FB098069
:10168000A37C8A6B0127CDE90402CDE90273C86906
:10169000DDE90832C17E807ECDE900015146069821
:1016A00000F0B2FB681C18D046F0020000F078FD94
:1016B000DBF80000A37C05FB0981826BCDE9027396
:1016C000CDE90412C069DDE90832C17E807ECDE932
:1016D00000015146069800F097FBDBF800005D46DC
:1016E000C069417E007E814214D9022E12D086F05C
:1016F000040000F055FD2868C069027EC37E857E27
:1017000002FB03A1437E099A0698534402FB05029B
:1017100000F07EFC0E9800F043FDDBF80000627CD8
:10172000418C1144418411B0BDE8F08F3402002097
:1017300004480068C069C06909B1027C0A60407C45
:101740007047000034020020022008807047C06902
:1017500082898A4202D8C2898A4210D2806880B1C6
:1017600002888A420DD843888B420AD3406800EB36
:101770008100A0EB8200B0F90000002801DB01200D
:101780007047002070477CB50D46064600F0ACFC63
:10179000044600F0B1FCCDE90005002223461146C5
:1017A000304600F001F87CBD2DE9FE431E46DDE920
:1017B0000A5417468846814600F056FC182800DD7A
:1017C00018200095CDE9014033463A464146484647
:1017D00006F012FDBDE8FE8370B590B38269022A5F
:1017E00030DA1C4C54F8221019B944F822002FE0CA
:1017F00019464B68002BFBD106E0CB68C5681B6817
:101800002D68AB4203DD09680029F6D11AE0C1B1A9
:10181000CB68C6681B683668B3420CD1838A012B3B
:1018200005D008E01946DB681B68AB4203DB0B6898
:10183000002BF7D129B14B6833B118604A68426078
:1018400004E0FFE7012070BD44F822004860016019
:10185000002070BD4C02002010B503E00468FFF7C3
:10186000BBFF20460028F9D110BD00002DE9F04152
:101870000026DFF834800D4F354600BF58F825406C
:1018800009E0E0680068385C20B1204606F0EEFD13
:10189000266026462468002CF3D16D1C022DEDDB5A
:1018A0003046BDE8F08100004C0200209EAF0008E9
:1018B000022801DB00207047054951F8200004E0B0
:1018C000C16809680029F6D000680028F8D170477F
:1018D0004C02002010B5044600F008F8204600F045
:1018E00039FC044600F046F8204610BD70B51F4C88
:1018F000E06820B100F048F86168884204D000F048
:101900004BF800F041F86060E068401CE06001289E
:1019100025D100250AE000BF00F036F8216901EB6F
:10192000C5110968814205D0D1B16D1CA0688542FE
:10193000F2DB00252068854211D000280EDBFFF77E
:1019400095FF2268216901EBC212D067084A01EBBA
:10195000C510011D1160C06FFFF77EFF256070BDCF
:10196000216901EBC5110860E4E70000580200207E
:10197000340200200348C168491EC16001D100F053
:1019800017B87047580200200248006890F83700E6
:1019900070470000040200201CB501AB0093002337
:1019A0001A461946014801F00DF81CBD504A0020A6
:1019B00008B56A460021024801F0CCF808BD0000D5
:1019C000504A002010B501210448FFF70BFE012802
:1019D00001D0002010BD012010BD00000018014002
:1019E00010B54FF400510448FFF7FCFD08B100208A
:1019F00010BD012010BD0000001001402DE9F04194
:101A000005460E461E4CE288E189002004F090FA5B
:101A10002BE0E2880F21002004F0AEFCE288E08990
:101A20004142E08904F084FAE288E189002004F070
:101A300051FC6FF00E07E28839460F2004F09CFC41
:101A4000E2880F21002004F0C7FAE288E0894142D1
:101A5000E08904F03FFCE288E189002004F068FAA4
:101A6000E28839460F2004F0B7FA3078A842D0D087
:101A7000E288E0894142E089BDE8F04104F058BACB
:101A80005C0000202DE9F04106460F461E4C62889E
:101A9000E189002004F04CFA2BE06FF00E0562881B
:101AA0002946002004F068FC6288E0894142E08910
:101AB00004F03EFA6288E189002004F00BFC6288A1
:101AC0000F21284604F058FC62882946002004F0C3
:101AD00083FA6288E0894142E08904F0FBFB628876
:101AE000E189002004F024FA62880F21284604F0DE
:101AF00073FA3878B042D0D06288E0894142E089F8
:101B0000BDE8F04104F014BA5C00002001A006F02A
:101B1000D3FCFEE70D0A206861726466616C75741F
:101B2000206572720D0A00002DE9F0410646204F33
:101B30003C68301BFEF7E4FD21F00041FEF7F1FDAB
:101B4000C5B2B44202DC01243E602DE04FF0FF3408
:101B50007868386028E017484168091B416081684F
:101B6000091B81600169091B01614169091B416110
:101B7000C169091BC161016A091B0162816A2144B3
:101B80008162C16A2144C162416B21444163816B1E
:101B900021448163016C21440164416C214441640E
:101BA00004F0DCF86D1EEDB2002DD4D1BDE8F0815B
:101BB0002C000020700000202DE9F34F87B0474D26
:101BC000089829680691FEF76EFB4549FEF771FB00
:101BD000296BFEF716FB804605F134044148D4F822
:101BE00004B05946FEF75FFBD4F808904946FEF76B
:101BF0005AFB02463C480260D4F80CA08AF000462A
:101C0000466086603949C16035491046FEF751FB90
:101C10002168FEF7F6FA074631493046FEF749FBE0
:101C200059460590FEF7EDFA064649460598FEF737
:101C3000E8FA81462E485146FEF7E3FA82464146CD
:101C40000798FEF730FB049002904FF07C51384625
:101C5000FEF7D7FA039038460399FEF760FB8346F8
:101C600048460399FEF75BFB019039465846FEF75C
:101C700020FB3946FEF71AFB206031465846FEF736
:101C800018FB3146FEF712FB606039460198FEF7FB
:101C900010FB4946FEF70AFBA06031460198FEF7AB
:101CA00008FB5146FEF702FBE06058460499FEF738
:101CB00000FB4146FEF7A5FA2863DDE90101FEF7C6
:101CC000F8FA0699FEF79DFA286001460898FEF793
:101CD000EAFA686209B0BDE8F08F0000E800002071
:101CE0000AD7233C6F12833AF04A0020A69B443B5C
:101CF00082A8FB3708B50121042004F0DDFC012097
:101D0000ADF8000003208DF8020048208DF8030094
:101D100069460248FFF7E5FB08BD000000180140D6
:101D200008B50121102004F0C7FC4FF40050ADF8B5
:101D3000000003208DF8020048208DF8030069465A
:101D40000148FFF7CEFB08BD0010014001600021F3
:101D50000171022242718271C1717047C90701D0BD
:101D6000002101710079704770B504460025607943
:101D700001281DD0022811D00125022603281FD0DA
:101D800004280AD1E0790A30C0B2E0710A2804D3ED
:101D90002068804750B1A571657170BD206880478B
:101DA0000028FAD0E5710420607170BD667170BDC5
:101DB000206880470028FAD1E5710320607170BD6A
:101DC000E0790A30C0B2E0710A28F8D32068804771
:101DD00008B1657170BDA57166712079401CC0B2F3
:101DE0002071FA28F6D9FA20207170BD0449054AFD
:101DF0000968497C52F82110096909680847000000
:101E0000340200204C0200202DE9F04F05468DB031
:101E10007C48DDF860901A9C00681E4617464FF01B
:101E2000000A78B11B9B199ACDF808900593CDE96B
:101E30000324DDE91623CDE90023046833463A463E
:101E4000284682E0DDE9160201EB060805EB070CE7
:101E50001043A8F10108ACF1010C012806D0C9F12A
:101E600008000590002002910890C8E066480268CA
:101E7000B2F90A30581A002806DD361A002E65DD40
:101E80001946199B00FB0344B2F90E00A8EB0000B1
:101E9000002802DD361A002E58DDB2F90C00ACEB3A
:101EA0000000002800DD3F1AB2F908300020AB42E4
:101EB00037DD581B3F1A4B46B9F1080F28D007DC15
:101EC000012B0DD0022B13D0B9F1040F29D117E04B
:101ED000102B1FD0182B20D0B9F1200F21D11CE0DE
:101EE00020F0070304EBE0041D4400F0070018E0B5
:101EF00020F0030304EBA0041D4400F0030010E0F5
:101F000020F0010304EB60041D4400F0010008E030
:101F1000044404E004EB400401E004EB80040544C5
:101F20000020002F12DD1B9BDDF864C0CDE9040307
:101F3000CDE902C4CDE90069527C34483B4650F8F3
:101F40002200C26854680A462946A0470DB0BDE881
:101F5000F08F17990298084409902B49401E009071
:101F60000A68B2F90A30834241DCB2F90E100298D5
:101F700081423CDB4FF0000BD84603950B9434E0D4
:101F8000BBF1000F05D10B984FF0080B10F801AB17
:101F90000B900599ABEB090B3AFA01F00AFA09F13B
:101FA00001F0FF0A04D118490968097C890716D491
:101FB00015490968C96B0A680C921B9A0AB152F854
:101FC0002000086016990398009B4218521E02993F
:101FD00000F01EF80C490C980968C96B0860039959
:101FE000169808F1010808440390B845C8DB089822
:101FF000401C089009980290199804440898B0422F
:10200000A7DBA3E754020020340200204C0200208A
:1020100038B5134C2468B4F90850854200DD2846D1
:10202000B4F90C50954200DA2A46824217DBB4F923
:102030000A508D4200DD2946B4F90E509D4200DA67
:102040002B468B420BDB0093647C064B53F82440F9
:10205000E3681D6913460A4601462046A84738BD75
:10206000340200204C020020024808210068407C15
:1020700006F098B83402002010B500F005F8BDE86D
:10208000104000F067B800002DE9FC41144E0546F1
:10209000144F30680C46407C57F82000C1680A6B2A
:1020A00069469047BDF90000A8420BDCBDF9040069
:1020B000A84207DBBDF90200A04203DCBDF906001F
:1020C000A04202DA0020BDE8FC8130682246407C54
:1020D00057F82000C1684B6929469847F3E700008C
:1020E000340200204C020020024801210068407C9C
:1020F00006F058B834020020024802210068407CF3
:1021000006F050B834020020AFF300802DE9F04112
:10211000002809D0876837B10D4E716819B104687D
:10212000B4F5807F02DD0020BDE8F0813068844294
:1021300000DD0446002507E057F82500FFF756FEAE
:10214000716841F825006D1CA542F5DB7068EBE76E
:10215000780200200449054A0968497C52F8211098
:102160000969496808470000340200204C02002039
:10217000044909680A7C520701D5C96B00E0896BE4
:102180000860704734020020044909680A7C52073D
:1021900001D5896B00E0C96B0860704734020020EC
:1021A00001490968896808477402002038B501218F
:1021B000182004F081FA0120ADF8000010208DF8FD
:1021C000030003208DF802000A4C69462046FFF701
:1021D00088F91821ADF80010074D69462846FFF729
:1021E00080F901212046FFF706FA18212846FFF75B
:1021F00002FA38BD000C0140001001401CB5044635
:10220000062269463B2003F065FD9DF801009DF81C
:10221000001040EA012020809DF803009DF8021084
:1022200040EA012060809DF805009DF8041040EA16
:102230000120A0801CBD1CB504460622694643202F
:1022400003F048FD9DF801009DF8001040EA0120D0
:1022500020809DF803009DF8021040EA0120608074
:102260009DF805009DF8041040EA0120A0801CBDE7
:1022700010B500214FF47A720020401C9042FCDB24
:10228000491C9142F8DB00216B2003F04EFD072131
:10229000192003F04AFD06211A2003F046FD002113
:1022A0001C2003F042FD1821BDE810401B2003F064
:1022B0003CBDFEE70A460021AFF3008010B5002ABE
:1022C0001ED000281CD0002300241B020B43641CDA
:1022D000042CFAD300F0030424B909E000F8011B30
:1022E000521E641C22B1042CF8D301E008C0121F56
:1022F000042AFBD202E000F8011B521E002AFAD188
:1023000010BD00002DE9F04705460E462E4C102169
:102310000020628904F01CF96FF00E0862894146C2
:10232000002004F0CDF862891921002004F058F94A
:1023300062896FF02C01102004F00AF962891621DD
:10234000002003F07FFF62896FF01701002003F087
:1023500031FF6FF00F076FF01F090EE06289102147
:10236000002003F0DFFE62894946102003F0DAFE08
:1023700062891021384603F0D5FE3078A842EDD0AE
:1023800062896FF01501162003F05CFF122162894B
:10239000484203F00FFF62892D216FF01C0004F00A
:1023A000D7F862896FF01801192004F019F96289D1
:1023B0000F21404604F084F862893946BDE8F047B1
:1023C000102004F0C5B800005C0000207047F0B594
:1023D0000F24C27801784FF0E0230127E2B1D3F84F
:1023E0000C2D02F4E062C2F5E062120AC2F10405AB
:1023F000D4404678AE4082782240324312011944DC
:1024000081F80024007800F01F018F40400903EBA1
:102410008000C0F80071F0BD01F01F00874048093E
:1024200003EB8000C0F88071F0BD00000249084352
:1024300002490860704700000000FA050CED00E05A
:10244000024A1140014302480160704780FFFF1FAC
:1024500008ED00E07047000002480068002800D046
:10246000004770474801002010B5044600F0C0F84E
:1024700047480022027047480270474802704748A8
:102480000260474802604748027047480270474868
:102490000270474802604748026047480260474868
:1024A000027047480A210068B0FBF1F04549086016
:1024B0004549086840B14548006828B1096801E00D
:1024C000491E04C00029FBD1414802604148026016
:1024D0004148026041480260414802604148026050
:1024E000414802604148027002F000F802F0D2F860
:1024F000204601F0D5FA2088002847D1204601F077
:10250000F1FD2088002841D1204601F0F7FD208808
:1025100000283BD1204601F091FE2088002835D1CB
:10252000204602F021F8208800282FD1204602F012
:1025300015FA2088002829D1204602F09BFC20882B
:10254000002823D1204601F043FD208800281DD11A
:10255000204601F0CBFB2088002817D1204603F04D
:10256000C3F92088002811D1204602F0D7FB20882B
:1025700000280BD1204603F01BFA2088002805D143
:1025800001F08DFABDE81040FFF764BF10BD0000F8
:102590005C01002064010020AC0100200402002046
:1025A00008020020920100209301002094010020E5
:1025B000A0010020A4010020A8010020B4010020F7
:1025C00074AF0008B001002050AF00084CAF000805
:1025D0003C0100204001002044010020480100206F
:1025E0004C0100205001002054010020E201002095
:1025F00030B5094D29680020084A002301E008C1D0
:10260000401C1468A042FAD32868116800EB8100CE
:102610000349001F086030BD4CAF000850AF0008F0
:102620003401002005480078012805D104490878C4
:10263000FA2801D2401C0870704700006401002095
:102640005C01002010B524480078012842D1FDF734
:102650008FFD04462149087840B1401EC0B2087081
:1026600048B12046BDE81040FDF786BD2046BDE8D4
:102670001040FDF781BD1A48007820B12046BDE822
:102680001040FDF779BD01F01FFF1649087016498B
:1026900000EB400051F82000144908601449096813
:1026A000884204D12046BDE81040FDF765BD50F8D2
:1026B000901F491C01600F480168491C01604FF0E0
:1026C000E0214FF08050C1F8040D2046BDE81040D5
:1026D000FDF752BD10BD0000640100205C01002028
:1026E000AC010020930100202C6100200802002092
:1026F00004020020D80100202DE9F0470446884656
:1027000017461D462648007820B142F6E160288031
:10271000BDE8F0876CB187B1FDF72AFD8146FEF771
:1027200075FE204E3078401CC0B23070012808D0B1
:1027300009E045F6C3502880EAE746F29450288025
:10274000E6E702F073F8FEF771FE4846FDF714FD68
:1027500015482060C4F80480394604F1200001F0D7
:102760001DFD04F1080001F0EBFD204601F0EAFE3A
:102770000E490888401C0880FDF7FAFC0446FEF765
:1027800045FE3178491EC9B2317009B902F05CF8D2
:10279000FEF74CFE2046FDF7EFFC00202880B7E74F
:1027A0005C010020AC010020515545559C010020E2
:1027B00010B51948007800282DD118480078002855
:1027C00029D1FDF7D5FC044601F07EFE14490870BE
:1027D000144900EB400051F82000134908601349E8
:1027E0000968884204D12046BDE81040FDF7C4BC0A
:1027F00050F8901F491C01600D480168491C016098
:102800004FF0E0214FF08050C1F8040D2046BDE8A4
:102810001040FDF7B1BC10BD5C010020AC010020F0
:10282000930100202C6100200802002004020020F7
:10283000D801002070B504461448007818B146F657
:102840006250208070BD12480078012803D045F600
:102850008960208070BD0F4D2878FA2803D345F297
:102860000920208070BDFDF783FC0646FEF7CEFDF3
:102870002878401C287001F0D9FFFEF7D7FD3046BC
:10288000FDF77AFC0020208070BD00005C01002074
:1028900064010020AC01002070B504461A4800789D
:1028A00018B146F66550208070BD184800780128A0
:1028B00003D045F68960208070BD154D287890B111
:1028C000FDF756FC0646FEF7A1FD2878401EC0B273
:1028D000287060B1FEF7AAFD3046FDF74DFC46F6C4
:1028E0006350208070BD46F66450208070BD01F0BA
:1028F000ABFFFEF79BFD3046FDF73EFCFFF758FFB0
:102900000020208070BD00005C01002064010020D8
:10291000AC0100202DE9F04704460F4690461D46C5
:102920002448007820B142F6E1602880BDE8F087B5
:1029300064B1FDF71DFC8146FEF768FD1E4E307840
:10294000401CC0B23070012804D005E045F6C350E9
:102950002880EBE701F06AFFFEF768FD4846FDF7C7
:102960000BFC16482060C4F820804FF00008C4F823
:102970002480676004F1080001F0E2FC204601F0C9
:10298000DBFF0F490888401C0880FDF7F1FB044677
:10299000FEF73CFD3078401EC1B2317009B901F03C
:1029A00053FFFEF743FD2046FDF7E6FBA5F8008048
:1029B000BCE700005C010020AC01002053454D4104
:1029C000BC0100202DE9F04F89B00646129D8A46D1
:1029D00091461C465B48007830B146F2AE10288024
:1029E000002009B0BDE8F08F56B1B9F1000F0CD04E
:1029F000B9F5004F09D045F6256028800020F0E7A2
:102A000045F6C35028800020EBE74F4930688842E4
:102A100004D045F6C45028800020E2E74FF00008BB
:102A20000CB1C4F80080FDF7A3FB8346FEF7EEFC73
:102A3000376A77B17F1E37620CB1706A2060346AE2
:102A4000FEF7F4FC5846FDF797FBA5F800802046FA
:102A5000C7E75FEA094009D5FEF7E8FC5846FDF7ED
:102A60008BFB46F2B01028803846BAE7374F3878EB
:102A700048B1FEF7DBFC5846FDF77EFB46F6635097
:102A800028800020ADE70120387001F0CFFEFEF76E
:102A9000CDFC5846FDF770FB53460622314601A88F
:102AA00001F0D8FBFDF764FB8146FEF7AFFC3878F8
:102AB000401EC0B2387008B901F0C6FEFEF7B6FC81
:102AC0004846FDF759FBFFF773FEFDF751FB07463C
:102AD000FEF79CFC1E48016891F8350078B101288A
:102AE00013D002281FD0032816D046F62E60288067
:102AF000FEF79CFC3846FDF73FFB002071E70CB168
:102B0000086C2060A5F8008013E00CB1086C206010
:102B100046F2A91028800CE00CB1C4F8008047F2FE
:102B2000D920288005E00CB1086C206045F6C25021
:102B30002880346AFEF77AFC3846FDF71DFB2046F4
:102B40004FE700005C01002053454D41AC010020DF
:102B5000040200202DE9FF4106460C46154686B1C9
:102B6000A4B1B4F5007F11D0B4F5004F0ED0B4F588
:102B7000024F0BD045F625602880002004B0BDE848
:102B8000F08145F6C35028800020F7E7114F3068E8
:102B9000B84204D045F6C45028800020EEE7FEF786
:102BA00099FC02460C48007860B10020CDE902256E
:102BB000CDE90004034602463146384601F0CCF820
:102BC0000020DBE704B02B4621463046BDE8F0414B
:102BD00001F0D0BE53454D415C01002070B5044664
:102BE0000E4D287818B145F68A60208070BD01F03E
:102BF0006BFC0B4908700B4908700B4900EB400057
:102C000051F820000949086009490860012028702E
:102C1000FDF730FF43F69920208070BD640100204D
:102C200093010020920100202C6100200802002066
:102C3000040200202DE9F0410646FDF799FA04460A
:102C4000FEF7E4FB3448002505603448058034482D
:102C500005803448056034480560344805603448D0
:102C600005603448056034480581FEF7DFFB2046E7
:102C7000FDF782FAFDF77CFA0746FEF7C7FB2F48FF
:102C80000468FEF7D3FB3846FDF776FA1EE0FDF741
:102C90006FFA0746FEF7BAFB04F17804E563256492
:102CA00025602563A561A582E5826562A562FEF7C0
:102CB00011FC2062A4F178042146A1F87050D4F8E8
:102CC000C040FEF7B3FB3846FDF756FA002CDED1C4
:102CD000FDF74EFA0746FEF799FB19480468FEF720
:102CE000A5FB3846FDF748FA0CE0FDF741FA074628
:102CF000FEF78CFB21468D85A469FEF797FB3846CD
:102D0000FDF73AFA002CF0D102F0F8FC02F030FFA7
:102D10003580BDE8F08100007801002072010020BC
:102D2000C2010020D4010020E8010020F4010020AD
:102D300060010020A401002020610020DC010020AF
:102D400098010020F8B504466946284800F0D6FBF3
:102D5000BDF8000008B12080F8BD6A4600210220BD
:102D600000F02CFCBDF8000008B12080F8BDFDF794
:102D7000FFF90746FEF74AFB1D4E00253560FEF7BA
:102D800055FB3846FDF7F8F900201A491A4A0B6836
:102D90001768BB4203D908681268B0FBF2F018B993
:102DA00009680A20B1FBF0F06A46002100F006FC39
:102DB00069460E4800F00AFABDF8000008B120800C
:102DC000F8BDFDF7D5F90746FEF720FB0B48056077
:102DD0000B49306808600B4901200870FEF726FB9C
:102DE0003846FDF7C9F92580F8BD00003C64002095
:102DF000C401002074AF000860AF0008D4010020B7
:102E0000C8010020D001002002480068002800D03E
:102E1000004770474C0100202DE9FF4F83B0044666
:102E2000DDE91795DDE91087DDF854B0139E784889
:102E3000007828B147F24A10288007B0BDE8F08F2B
:102E400054B1059860B17FB17248006886420FD2D4
:102E500046F630602880F0E747F2AD102880ECE7B6
:102E600047F24F102880E8E746F62F602880E4E715
:102E70001298B04203D346F631602880DDE746F26F
:102E80007320B8F1200F01D32880D6E7B8F1000FE6
:102E900004D161498C4201D02880CEE7B8F11F0FE0
:102EA00004D15E498C4201D02880C6E7204601F05B
:102EB000F1FF4FF0000AA5F800A05FEAC9700BD03F
:102EC0005FEA897008D53846002103E0C0F800A009
:102ED000001D491CB142F9D3129807EB8005CDE9DA
:102EE0000069DDE905012B463A4600F0D1FA059963
:102EF000A1620699E1620499216284F8378020601A
:102F0000A560C4F854B0BBF1000F25D0C4F858B088
:102F1000169860606762A663A4F83C90002004EBFA
:102F20008001C1F87CA0401CC0B20028F7D004F199
:102F30006400149901F032F9204600F07BF8FDF7A7
:102F400017F90646FEF762FA354D2878401CC0B2E4
:102F50002870012804D005E032480068A065D7E752
:102F600001F064FCFEF762FA3046FDF705F994F8CB
:102F7000370001F0C7FA204601F0D2FB204601F0ED
:102F800047FF29490888401C088028480078012804
:102F900028D0FDF7EDF80446FEF738FA2978491EE7
:102FA000C9B2297039B1FEF741FA07B02046BDE831
:102FB000F04FFDF7E1B801F047FC1D48008848B12B
:102FC000FEF734FA2046FDF7D7F807B0BDE8F04F1A
:102FD00001F008BCFEF72AFA07B02046BDE8F04F22
:102FE000FDF7CAB8FDF7C4F80446FEF70FFA2978D2
:102FF000491EC9B2297009B901F026FCFEF716FA7C
:103000002046FDF7B9F807B0BDE8F04FFFF7D0BB99
:103010005C01002070AF000858600020905F002025
:10302000AC010020B0010020E0010020640100207C
:103030007001002002490968002900D00847704744
:103040003C0100202DE9F04104460D46544800782B
:1030500020B147F24E102880BDE8F08151488442EB
:1030600003D147F24C102880F6E74F48844203D141
:1030700047F24D102880EFE75CB9FDF779F8064676
:10308000FEF7C4F949480468FEF7D0F93046FDF769
:1030900073F8FDF76DF80746FEF7B8F9444E30783F
:1030A000401CC0B23070012801D101F0BFFBFEF717
:1030B000BDF93846FDF760F894F8360008283CD290
:1030C000DFE800F004080C0C1C080C0C204601F092
:1030D0005FFB13E0204602F0F5FA0FE0204602F015
:1030E000F1FA94F83400072808D2DFE800F007046A
:1030F000070404040400204601F054F904F16400BC
:1031000001F032F8204600F059F8204601F092FE16
:1031100028490888401E0880204601F0BBFEFF2099
:1031200084F83600FDF724F80446FEF76FF930788E
:10313000401EC1B2317031B327E0FDF719F80446E3
:10314000FEF764F93078401EC1B2317041B1FEF72C
:103150006DF92046FDF710F846F62D6028807BE7D4
:1031600001F072FB1448008838B1FEF75FF9204681
:10317000FDF702F801F036FBEEE7FEF757F92046BF
:10318000FCF7FAFFE8E701F05FFBFEF74FF9204696
:10319000FCF7F2FF00202880BDE8F041FFF708BBF4
:1031A0005C010020905F0020586000200402002095
:1031B000AC010020E00100207001002002490968F4
:1031C000002900D008477047400100207FB5044621
:1031D0000D46FCF7CDFF0646FEF718F91CB1134863
:1031E0000068844208D1FEF721F93046FCF7C4FF9D
:1031F00047F2571028807FBDFEF718F93046FCF7DC
:10320000BBFF0B48007850B10022CDE902250092A7
:10321000019213462146074800F09EFD7FBD04B091
:1032200029462046BDE8704001F07EBF0402002020
:103230005C0100205452455302490968002900D01E
:1032400008477047440100202DE9F05F83468A4615
:1032500014461D465C48007828B146F2AE1028801E
:103260000020BDE8F09FBAF1000F07D0BAF5004F7B
:1032700004D045F6256028800020F2E7002604B13E
:103280002660FCF775FF8146FEF7C0F84F4F38689F
:10329000D0F84480B8F1000F1CD0A8F10108C0F8A4
:1032A00044800CB1006C2060FEF714F901463868C8
:1032B000026C891AC0F8A410D0F8A8208A4201D262
:1032C000C0F8A810FEF7B2F84846FCF755FF2E806C
:1032D0004046C6E75FEA0A4009D5FEF7A7F8484628
:1032E000FCF74AFF46F2B01028800020B9E7DFF86B
:1032F000E08098F8000048B1FEF798F84846FCF7DF
:103300003BFF46F6635028800020AAE7012088F89A
:10331000000001F08BFAFEF789F84846FCF72CFF15
:1033200000215B460722084600F094FFFCF720FFCF
:103330008146FEF76BF898F80000401EC1B288F88D
:10334000001009B901F080FAFEF770F84846FCF762
:1033500013FFFFF72DFAFCF70BFF8046FEF756F838
:10336000396891F8350078B1012820D0032825D09C
:1033700046F62E6028803868446CFEF757F84046C1
:10338000FCF7FAFE20466CE77CB1086C2060FEF783
:10339000A1F801463868026C891AC0F8A410D0F868
:1033A000A8208A4201D2C0F8A8102E80E3E70CB111
:1033B000086C206046F2A9102880DCE704B1266082
:1033C00047F2D9202880D6E75C01002004020020C3
:1033D000AC0100202DE9F0470646884691461F467D
:1033E0002948007820B147F259103880BDE8F087AD
:1033F00046F2D520B8F1000F09D0B9F1000F08D07E
:10340000FCF7B6FE0446FEF701F826B105E0388069
:10341000ECE73880EAE71D4806684FF0000A30689C
:1034200050B1B08FC00714D0FEF700F82046FCF76B
:10343000A3FE0024756A1BE0FDF7F8FF2046FCF7A9
:103440009BFEC8F800A0C9F800A047F252103880CF
:10345000CCE7FDF7EBFF2046FCF78EFEC8F800A096
:10346000C9F800A047F254103880BFE72D1D641C36
:1034700028680028FAD0C8F80040B06B001BC9F8D3
:103480000000A7F800A0B1E75C01002004020020C2
:1034900010B5029C02EB84024FF0807442F8044C99
:1034A00042F8080C0C3A14481060A2F130004FF0BA
:1034B0001234C4624FF0033282624FF00232426231
:1034C0000362C1614FF0113181614FF010314161F0
:1034D0004FF0093101614FF00831C1604FF0073101
:1034E00081604FF0063141604FF0053140F804191A
:1034F0004FF00431016010BD3D5200081FB5044675
:103500001048844203D147F25B1008801FBD0E486B
:10351000844203D147F25C1008801FBD0B4800783D
:1035200050B10022CDE902210092019213462146BA
:10353000074800F011FC1FBD04B02046BDE8104054
:1035400001F0A6BF905F0020586000205C010020C1
:103550005453555370B51548006800B18047FDF7C6
:10356000B9FF134C134A21681268914208D001F147
:1035700094014B68A0EB03030B608D682B448B60B8
:10358000C2F89800FDF724FF2168D1F8B4208242E8
:1035900001D2C1F8B400084AD1F8B83010688342AB
:1035A00001D2C1F8B8000020106070BD50010020A9
:1035B0000402002008020020A80100202DE9F041AB
:1035C00007460D4614463648007820B147F275206C
:1035D0002080BDE8F081334E307818B146F6635054
:1035E0002080F6E74DB1022D07D0042D06D0082D1E
:1035F00003D045F625602080EBE75FB1FCF7B8FD0E
:103600008046FDF703FF3078401CC0B230700128BF
:1036100004D005E047F27E202080DAE701F006F9C9
:10362000FDF704FF4046FCF7A7FDDFF87C80012191
:10363000D8F8000080F8361023462A46394601F0B3
:10364000C9FF208890B1FCF793FD0446FDF7DEFE2C
:103650003178491EC9B2317009B901F0F5F8FDF7AA
:10366000E5FE2046BDE8F041FCF786BDD8F8000035
:1036700001F08EF8FCF77CFD0546FDF7C7FE3078BB
:10368000401EC1B2317009B901F0DEF8FDF7CEFE7F
:103690002846FCF771FDFFF78BF80020208098E7A3
:1036A0005C010020AC010020040200202DE9F0475D
:1036B0001646DDE90824644D2D7825B147F27520C2
:1036C0002080BDE8F087614F3D781DB146F663501C
:1036D0002080F6E702F00E0547F27E2845F62569C0
:1036E00045B1022D06D0042D08D0082D02D0A4F833
:1036F0000090E6E713B90EB901B928B132F01E0CFB
:1037000005D04FF0010C04E0A4F80080D9E74FF099
:10371000000CBCF1010F0FD0C2F3001247F279295F
:1037200047F2782A4FF47A7C012A18D0634506D3F1
:1037300047F27B202080C4E7A4F80090C1E73B2E2D
:1037400003D947F27A202080BBE73B2902D9A4F8AD
:103750000090B6E763280ED9A4F800A0B1E742F2C2
:103760000F72914202D9A4F80090AAE7604502D3F3
:10377000A4F800A0A5E7364A12684FF4FA79B9FB1D
:10378000F2F94B445343B3FBFCF34FF4616C00FB81
:103790000CF0C1EB011100EB8100304400FB02365C
:1037A000F6B3FCF7E5FC8046FDF730FE3878401CA8
:1037B000C2B23A70012A01D101F038F8FDF736FEA5
:1037C0004046FCF7D9FCDFF88C800121D8F80000D6
:1037D00080F8361023462A46314601F0FBFE208849
:1037E00090B1FCF7C5FC0446FDF710FE3978491E80
:1037F000C9B2397009B901F027F8FDF717FE204664
:10380000BDE8F047FCF7B8BCD8F8000000F0C0FFF6
:10381000FCF7AEFC0546FDF7F9FD3878401E00E0E8
:103820000EE0C1B2397009B901F00EF8FDF7FEFDE6
:103830002846FCF7A1FCFEF7BBFF0020208040E7F4
:10384000A4F800803DE700005C010020AC010020EE
:1038500074AF00080402002000B585B000F01EF827
:10386000FDF738FE024604AB00210948CDE90223EA
:10387000009101910078074900EB400001EB8001C5
:1038800000231A46044800F067FA05B000BD0000A6
:10389000920100202C6100205449434B02480068EB
:1038A000002800D000477047540100202DE9FF4F49
:1038B00081B00446DDE90E8B119D8A4616461F46EF
:1038C0003448007828B147F24330288005B0BDE87D
:1038D000F08F4CB1B8F1010F0FD0B8F1020F07D043
:1038E00045F625602880F1E745F6C3502880EDE7CE
:1038F00027B947F240302880E8E77EB1FCF738FC72
:103900000090FDF783FDDFF8909099F80000401CCF
:10391000C0B289F80000012804D005E047F23F302A
:103920002880D3E700F082FFFDF780FD0098FCF7C8
:1039300023FC012084F82A0018482060C4F804A061
:1039400026620026A661E6616762A4F82880C4F8B2
:1039500008B01098E06026616661204602F01AF80F
:103960000F490888401C0880FCF702FC0446FDF75C
:103970004DFD99F80000401EC1B289F8001009B948
:1039800000F062FFFDF752FD2046FCF7F5FB2E80AC
:103990009CE700005C010020AC010020544D522047
:1039A000F0010020F8B505460C462548007820B106
:1039B00047F2433020800020F8BD45B121492868F6
:1039C000884209D045F6C45020800020F8BD47F257
:1039D000423020800020F8BD6846FEF72BFF95F8A6
:1039E0002A1029B30026012918D0022909D0032959
:1039F00014D06846FEF750FF47F241302080002087
:103A0000F8BD284602F020F90021284602F056F8B9
:103A10006846FEF741FF26800120F8BD00212846B8
:103A200002F04CF86846FEF737FF26800120F8BD0B
:103A30006846FEF731FF47F23D3020800020F8BD98
:103A40005C010020544D522010B5FCF791FB044658
:103A5000FDF7DCFC074A1178491C1170FDF7E6FC04
:103A60002046FCF789FBFFF7F7FEBDE81040FEF7A4
:103A7000E9BD00005C0100204FF0E021401E4861DC
:103A8000D1F8200D20F07F40C1F8200D086940F0EA
:103A900005000861086940F002000861704770473E
:103AA000034A00211160034A118001807047000021
:103AB0007C010020800100202DE9F05F04460F46C4
:103AC00090469A460A9EFCF753FB0546FDF79EFC7E
:103AD000B8F1000F15D0B8F1010F16D0B8F5004FAE
:103AE0000FD06FF4004018EB00000ED0FDF79EFCE5
:103AF0002846FCF741FB45F6256030800020BDE8F4
:103B0000F09F206A3843206202E0206AB8432062B6
:103B1000C4F824A004F1080B4FF00009BBF808001A
:103B200038B1514F3878401CC0B23870012809D0E4
:103B30000AE0FDF77BFC2846FCF71EFBA6F8009088
:103B4000206ADCE700F072FEFDF770FC2846FCF707
:103B500013FBDBF80050A8685EE06D68B0F88810D1
:103B600001F00F0101292CD0022935D0042915D0EC
:103B700008291DD0FCF7FCFA0446FDF747FC38780D
:103B8000401EC1B2397091B3FDF750FC2046FCF7DE
:103B9000F3FA43F6FF2030800020B0E7216AD0F826
:103BA000802011408A421FD1524600F061F81BE08C
:103BB000216AD0F880201140B1B1524600F058F887
:103BC00012E0D0F88010236A0A4699438A420BD14A
:103BD000524600F04DF807E0D0F88010226A914379
:103BE00011B1524600F044F8ADB1A86814E0FFE707
:103BF00000F02AFE1D48008838B1FDF717FC20466A
:103C0000FCF7BAFA00F0EEFDC3E7FDF70FFC204623
:103C1000FCF7B2FABDE7002000289ED1FCF7A8FA15
:103C20000546FDF7F3FB3878401EC0B2387008B97E
:103C300000F00AFEFDF7FAFB2846FCF79DFA5FEA62
:103C4000084001D4FEF7B4FDFCF792FA0546FDF7F3
:103C5000DDFB246AFDF7EAFB2846FCF78DFAA6F89F
:103C6000009020464BE70000AC01002070010020CE
:103C700070B5044604F1340421654FF00005657009
:103C80002570E260A078A4F1340408280ED2DFE8A1
:103C900000F00D0D04040D0D0A0A204601F034FA5F
:103CA00084F8365002E0042084F836002046BDE84F
:103CB000704000F077BB00000A4C0B4DFCF758FA3F
:103CC0000646FDF7A3FB2168491C21602968491CB1
:103CD0002960FDF7ABFB3046FCF74EFAFEF7BCFB64
:103CE000ECE7000058010020C401002000B589B0B5
:103CF0000E4A002111600B220890CDE906120C48F3
:103D000005910B4602680B4801680B480068CDE935
:103D10000323CDE901011F2300930023074A08A1D3
:103D20000C48FFF779F809B000BD000058010020E9
:103D300034AF000830AF00082CAF0008B93C0008D1
:103D400075432F4F532D4949492049646C652054D0
:103D500061736B00905F00202DE9F84F0546DDE9A7
:103D60000BAB0E4617469846DDF828900D9CFCF7E5
:103D7000FFF90090FDF74AFB1D491E4A088812888A
:103D8000904227D2401C80B208801B490A88824298
:103D900000D208801949086805608660C760A0F8ED
:103DA0001080C0F81490A0F818A0C0F81CB04068AB
:103DB000086013480121018112490160416000201F
:103DC00000F0A0FB1048007808B1104908700020EE
:103DD000208006E00E490888401C088044F25360A9
:103DE0002080FDF723FB0098BDE8F84FFCF7C4B92D
:103DF000700100203CAF0008720100206801002023
:103E00002C610020586000209201002094010020C5
:103E1000740100203EB53B4C3B4A206801688B1A78
:103E200091424CD016DC394A891830D0384A89186A
:103E300024D0384A891836D0374A891809D102ABBC
:103E4000C269CDE90023038B028AC168806801F052
:103E50007FF83EBD3149591820D0314A891829D000
:103E6000304A8918F5D102ABC269CDE90023038B32
:103E7000028AC168806800F083FB3EBD02AB0093FC
:103E8000028BC36941698068FFF716FE3EBD018B56
:103E9000C269806802AB00F06DFD3EBD806802A97A
:103EA00001F042F93EBD018BC269806802AB01F0AE
:103EB000D1F93EBD806802A901F0EAFA3EBD1A4878
:103EC0001A49007800EB400001EB800000F0DAFCBA
:103ED000206802AB0021C269154801F0BBF9154901
:103EE0000868401E08600028E8D113480068086090
:103EF000FDF7F0FA024602AB0021104801F0AAF9E2
:103F00003EBD00006C0100205449434BADBAB2BE27
:103F10000DF90BFAF2F8F7FF0006F6FF00F7FDF7D0
:103F200000FFEFFF03FE0FFE940100202C61002034
:103F30007463002000020020FC0100203C6400208B
:103F40001F4E204D0024FCF713F90746FDF75EFADB
:103F5000288820B3FDF76AFA3846FCF70DF9FDF71B
:103F6000B9FA0746FFF756FFFDF7B4FAC01B3168F0
:103F7000814200D23060FCF7FBF80746FDF746FAB5
:103F800011480168496801602988491E2980FDF7A8
:103F90004DFA3846FCF7F0F8002CD4D0D2E70B4AA3
:103FA0000021118111605160002000F0BBFAFDF783
:103FB0003DFA3846FCF7E0F8FEF7FAFB0124EBE7A0
:103FC00078010020700100206C0100202C6100208D
:103FD000F0B589B02D4900250D802D4E316841B1D5
:103FE0002C4F3988022908D244F25461018009B06B
:103FF000F0BD44F252610180F9E727490D60316854
:1040000001F120020024254B0AE00B608D60CD6099
:104010000D824D610D834A6020312032641CA4B2B0
:10402000B7F800C06445F0D3326841F81C2C1C4935
:104030000A601C490A601C490D801C490D801C4CFB
:10404000216849B11B4D1C4A29681268914207D268
:1040500044F256610180CAE744F255610180C6E727
:10406000002103220890CDE90612144805910B4661
:104070000168206801AC2A680FC40023104A11A10E
:1040800017480093FEF7C8FEB1E700007401002056
:1040900038AF00083CAF0008780100204E4F4E4575
:1040A000680100206C0100207001002072010020D6
:1040B00040AF000848AF000870AF000844AF0008E8
:1040C000413F000875432F4F532D4949492049531B
:1040D00052205175657565205461736B00000000B6
:1040E00058600020034A00211160034A11800180BA
:1040F000704700008401002088010020F0B5174EB1
:10410000316859B1164F398861B13168326810325F
:104110003B885B1E9DB2002300240FE045F21E7118
:104120000180F0BD45F21D710180F0BD0A604C6058
:104130000C81CC60103110325B1C9BB2AB42F5D3CA
:104140000C604C600C81CC60064932680A603A8889
:104150008A80CC800C810480F0BD000058AF00083C
:1041600054AF00082061002010B5428992B1036865
:1041700009490C681C6043680B60CB8844891B1B91
:10418000CB808B88448923448B80002141818181AD
:1041900001604160104610BD2061002001810021B6
:1041A0004181818101604160704700002DE9F0414B
:1041B000DDE906C744890589AC4204D346F2935031
:1041C0003880BDE8F0811C4EB588CDB13468D4F894
:1041D0000080C6F800806D1EB580F5886D1CADB2FC
:1041E000F580B6F80880A84500D2358146890025BB
:1041F00056B1DB060ED403681C60046025600CE039
:1042000045F21D703880DCE704604460012343817F
:10421000256005E043682360446043895B1C43815B
:10422000868943899E4200D2838161602281C4F8DD
:104230000CC03D80C5E7000020610020034A00213A
:104240001160034A11800180704700008C0100203A
:10425000900100202DE9F0410C4607461946104D0B
:10426000286880F83420002680F8356000F0B6FD1C
:1042700064B104F10806FC6001223946286800F0A8
:1042800011F83946304600F060F802E02868C68729
:10429000066320462968BDE8F04100F017B8000029
:1042A0000402002010B5C28701630024002309E046
:1042B0004B600B600B614B610B83CB6188602031DD
:1042C000641CA4B29442F3D310BD000048B142680C
:1042D000C1F8C42000F1080109688968096AC16150
:1042E000704791F83400022805D0072807D006A0AF
:1042F000C1F8C400704705A0C1F8C400704705A00C
:10430000C1F8C40070470000200000005461736BC6
:10431000205100005461736B2053656D0000000054
:1043200006A2C1F8C42000F10801096819B1896822
:10433000096AC161704701A1C16170472000000096
:104340000021016041600181704730B58A6892F8B0
:104350003740028900251AB1521C028102680CE024
:10436000012202814D600D600160416030BD9368A3
:1043700093F83730A34202D85268002AF7D132B1FD
:10438000136853B10B604A605960116030BD4D60D5
:1043900042680A605160416030BD11600D604A6042
:1043A000016030BD70B50646356BF48F07E0E868F4
:1043B0000830294600F009F82035641EA4B2002C0C
:1043C000F5D10020F087306370BD10B5028900245C
:1043D000012A0BD00A6862B14B6873B153601A604E
:1043E0000289521E02814C600C6010BD0460446062
:1043F000F6E74A6814600260F2E754604260EFE753
:10440000F8B506461846069B0C46002594F836106B
:1044100008291DD2DFE801F01C1C04041C1C242404
:1044200094F83410032914D0E265A4F860002364E2
:1044300036B12046FFF7B6FF21463046FFF770FF42
:10444000204600F061FE04F13404A570657025700B
:10445000F8BD009303462146304600F022F8E7E716
:1044600094F83410032915D0E265A4F860002364A1
:10447000204601F027F936B12046FFF793FF214689
:104480003046FFF74DFF04F134040420A07065703E
:104490002570F8BD009303462146304600F001F830
:1044A000E6E770B5049D0C6BC98F0AE0E6688642AA
:1044B00004D1206162612383E56170BD2034491E0F
:1044C00089B20029F2D170BD10B50024064802E07F
:1044D0002034E4B2001D01680029F9D00068FBF720
:1044E00052FE2044C0B210BD380100200020044A12
:1044F000002142F82010401C0028FAD0704700002C
:1045000038010020410900F01F020120C2F11F0202
:104510009040034B53F82120024343F82120704779
:1045200038010020410900F01F020120C2F11F02E2
:104530009040034B53F82120824343F821207047D9
:104540003801002006A1C16100224261054B1968B3
:1045500019B181614861186070478261FBE7000012
:104560002000000098010020034A00211160034A46
:104570001180018070470000980100209C010020FC
:104580002DE9FF4F83B080468A4693461E46DDF8EC
:104590004490FBF7EDFD0446FCF738FF3B4F3878BD
:1045A000401CC0B23870012801D100F03FF9FCF77F
:1045B0003DFF2046FBF7E0FD08F10800048924B127
:1045C000B10500D40124056842E0F00601D40020C2
:1045D00000E01020109ACDE9002903465A465146C2
:1045E00008F12000FFF7E2FDFBF7C2FD0446FCF7EF
:1045F0000DFF3978491EC9B2397039B1FCF716FF81
:1046000007B02046BDE8F04FFBF7B6BD00F01CF93F
:104610001F48008848B1FCF709FF2046FBF7ACFDB6
:1046200007B0BDE8F04F00F0DDB8FCF7FFFE07B0C3
:104630002046BDE8F04FFBF79FBDA9686D68109B51
:1046400000935B4652464046FFF7DAFE641EA4B272
:10465000002CF2D1FBF78CFD0446FCF7D7FE38782E
:10466000401EC1B2397009B900F0EEF8FCF7DEFE69
:104670002046FBF781FD300401D4FEF799F80020B5
:10468000A9F8000007B0BDE8F08F0000AC010020E1
:10469000700100200020074B002200EB400103EBDB
:1046A00081010A810A604A60401CC0B22028F4D30C
:1046B000704700002C61002010B5044694F83700C4
:1046C000FFF720FF074994F837000978884204D1A2
:1046D0002046BDE8104000F023B82046BDE8104059
:1046E00000F002B89201002090F837100B4A01EB5D
:1046F000410102EB810100230A8942B1521C0A8167
:104700000A68C26003610A6810610860704701228C
:104710000A81C36003610860486070472C61002013
:1047200090F837100B4A01EB410102EB81010023A5
:104730000A893AB1521C0A81C3604A680261D0609A
:104740004860704701220A81C360036108604860C5
:10475000704700002C61002010B5018900290DD0A0
:1047600001290BD00024022909D001684368CA68D6
:104770001461CC600B61D9600260416010BD0168BA
:1047800042680A61CC601461D1600260416010BD72
:1047900070B50446124994F8370000EB400001EB75
:1047A00080012069E268002540B10B895B1E0B8106
:1047B000C26092B110612561E56070BD2AB10889BF
:1047C000401E088115610A60F5E70D810D604D609E
:1047D00094F83700FFF7A6FEEDE74860EBE700002E
:1047E0002C61002010B5FBF7C3FC0C4A00211170AE
:1047F0000C4A0B49116051F8902F521C0A600A4A6A
:104800001168491C11604FF0E0224FF08051C2F84E
:10481000041DBDE81040FBF7AFBC00009301002071
:104820005860002008020020D801002010B504487C
:104830000078012803D1FCF74DFE0249086010BD45
:10484000AC010020A001002010B50A480078002823
:104850000ED1FCF73FFE08490968401A07490A686B
:10486000824200D2086006490A68824200D208608B
:1048700010BD0000AC010020A0010020A401002018
:10488000A801002070B504462748007801284AD1C5
:10489000FBF76EFC0546FCF7B9FD216849B12348DA
:1048A00081420DD1FCF7C2FD2846BDE87040FBF700
:1048B00063BCFCF7BBFD2846BDE87040FBF75CBC61
:1048C000886D08B1401E8865886D30B1FCF7AEFD7B
:1048D0002846BDE87040FBF74FBC2089022806D26D
:1048E000FCF7A4FD2846BDE87040FBF745BC104826
:1048F000007830B1FCF79AFD2846BDE87040FBF720
:104900003BBC2046FFF728FF2068416D39B1816527
:10491000FCF78CFD2846BDE87040FBF72DBC05492F
:1049200009688165F4E770BDB4010020905F002044
:10493000AC010020B001002006A1C161002242614B
:10494000054B196819B1816148611860704782612F
:10495000FBE7000020000000B8010020034A00210E
:104960001160034A1180018070470000B8010020E7
:10497000BC0100202DE9F84F0646884693461F46A5
:10498000FBF7F6FB0446FCF741FD06F108054FF086
:10499000000A288950B1DFF8BC9099F80000401C4B
:1049A000C0B289F8000001281BD01CE0356A681CE1
:1049B0000DD06D1C3562C6F824B0FCF737FD2046DB
:1049C000FBF7DAFBA7F800A02846BDE8F88FFCF754
:1049D0002DFD2046FBF7D0FB46F6C5503880002061
:1049E000F3E7FFF723FFFCF721FD2046FBF7C4FBAD
:1049F0005FEA885001D52C8900E001242D680AE087
:104A0000A9686D6800231A463046CDF800B0FFF75C
:104A1000F7FC641EA4B2002CF2D1346AFBF7A8FBA9
:104A20000546FCF7F3FC99F80000401EC1B289F876
:104A3000001009B9FFF708FFFCF7F8FC2846FBF760
:104A40009BFB5FEA084001D4FDF7B2FEA7F800A087
:104A50002046BAE7AC0100200EB59E4D9E4C28685A
:104A6000460004E002AA00213046FEF7A7FD2178A7
:104A70000129F7D102A8FEF7DDF84FF0000A9748A8
:104A80002A680168914203D901682A68B1FBF2FAE9
:104A9000BAF1000F03D100680A21B0FBF1FA4FF41C
:104AA0007A7942F210764FF00008F4E08C488242A6
:104AB00002D23046012113E08A48824202D248469F
:104AC0000A210DE08848824202D26420642107E076
:104AD0008648824202D20A20494601E0012031463E
:104AE000B2FBF1F15843B0FBF1F08149301A80B2CA
:104AF000088080490A88824203D2088001E07C480D
:104B00000680FEF781F90027FBF732FB8346FCF7AE
:104B10007DFC794C2568FCF789FC5846FBF72CFB9B
:104B20003AE0FBF725FB0090FCF770FCDFF8CCB116
:104B30009BF80000401CC0B28BF80000012801D196
:104B4000FFF774FEFCF772FC0098FBF715FBD5F835
:104B50009C00C5F8A000C5F89C80FBF709FB0090FD
:104B6000FCF754FC9BF80000401EC0B28BF800001C
:104B7000D8B1FCF75BFC0098FBF7FEFA55F8A00FE4
:104B80000744FBF7F5FA8346FCF740FC2D6AFCF777
:104B90004DFC5846FBF7F0FA002DC2D17FB35048C8
:104BA000874215D23546012026E0FFF74DFE5448D6
:104BB000008838B1FCF73AFC0098FBF7DDFAFFF704
:104BC00011FEDBE7FCF732FC0098FBF7D5FAD5E7DE
:104BD0004448874202D24D460A200DE042488742AF
:104BE00002D26425642007E04048874202D20A25A9
:104BF000484601E001253046B7FBF0F702E0FFE749
:104C000000250127FBF7B4FA8346FCF7FFFB246875
:104C1000FCF70CFC5846FBF7AFFA23E0D4F8A000F1
:104C20006843B0FBF7F080B2B04200D93046A4F838
:104C30008C00B4F88E10814201D2A4F88E0004F1E9
:104C4000AC0202AB111D2046FEF7C4FBFBF790FA45
:104C50008346FCF7DBFBD4F8C040FCF7E7FB584683
:104C6000FBF78AFA002CD9D126480178012904D112
:104C700080F8008002A8FDF7DDFFFCF72BFC01990E
:104C8000401A21490A68824200D2086002AA002123
:104C90005046FEF793FCFCF71DFC0190FCF7A8FBC7
:104CA0001A490860FBF764FA0546FCF7AFFB1848A1
:104CB000184C01682160C0F80080FCF7B7FB28465B
:104CC000FBF75AFA1448236802689A427FF617AF36
:104CD000ECE6000060AF0008D001002074AF0008CF
:104CE000801A060000093D00005A62020084D717AE
:104CF000C0010020C2010020DC010020AC01002026
:104D000070010020BE010020D401002060010020BD
:104D1000C4010020CC010020C801002070B58AB079
:104D20001D4A002111601D4A11601D4A11601D4A73
:104D300011701D4A11701D4D296851B11C4E1D4A3C
:104D400031681268914208D246F62C6101800AB09F
:104D500070BD46F62B610180F9E7174C21781F29B9
:104D600003D346F62A610180F1E70021032208906F
:104D7000CDE90612114805910B460168286801AD7E
:104D800032680FC52378009300230D4A0DA1124805
:104D9000FEF742F8DBE70000C4010020CC01002050
:104DA000C8010020D0010020BE01002064AF00082F
:104DB0006CAF000870AF00085CAF000868AF000877
:104DC000594A000875432F4F532D494949205374C0
:104DD0006174205461736B00AC62002038B50446E6
:104DE000022571B16B460222204600F0F3FBBDF8AC
:104DF000000010B184F8365005E0032084F8360036
:104E000001E084F836502046FFF7C2FC38BD0000B0
:104E10000023C0F8BC30064A116829B1C0F8C010A0
:104E2000C1F8BC0010607047C0F8C030FAE700005D
:104E3000DC010020D0F8BC20D0F8C01000234AB11B
:104E400081B1C2F8C010C1F8BC2000F1BC004360C1
:104E500003607047064A116009B1C1F8BC30C0F860
:104E6000C0307047C2F8C030C0F8BC307047000096
:104E7000DC010020044A00211160044A1180044A28
:104E80001160018070470000DC010020E00100207B
:104E9000D801002070B5044600252560A560656036
:104EA000E56025616561A561E56126A02062656216
:104EB000A562E5622563E5872564E565A4F8605091
:104EC000002104F16400FFF769F944F8745F65603C
:104ED000E560A5822561A4F17404284604EB8001F5
:104EE000CD67401CC0B20028F8D004F1340425611D
:104EF00025676567656084F85650E567A567258175
:104F00004FF000406061A561E56125626562A4F82B
:104F10005850A4F85A50E5652566FCF7DBFA606640
:104F2000A566C4F88050C4F8845025706570A570DB
:104F30002020E070C4F88850C4F88C5003A0C4F856
:104F4000900070BD3F5461736B00000020000000B2
:104F50002DE9FC5F0446DDE90CA6884691461F4614
:104F6000FBF706F98346FCF751FA644D2878401C9C
:104F7000C0B22870012801D1FFF758FCFCF756FA9F
:104F80005846FBF7F9F80CB95D48046800203080FA
:104F900094F83600DFF86CB108287ED2DFE800F024
:104FA0000404333304043333CDE900A63B464A46B8
:104FB000414604F16400FFF7F9F8FBF7D9F804461D
:104FC000FCF724FA2878401EC1B2297031B1FCF7F1
:104FD0002DFA2046BDE8FC5FFBF7CEB8FFF734FCA6
:104FE000BBF8000040B1FCF721FA2046FBF7C4F8FB
:104FF000BDE8FC5FFFF7F6BBFCF718FA2046BDE8FA
:10500000FC5FFBF7B9B894F83400022819D0CDE959
:1050100000A63B464A46414604F16400FFF7C6F845
:10502000FBF7A6F80446FCF7F1F92878401EC1B258
:10503000297029B3FCF7FAF92046BDE8FC5FFBF7BD
:105040009BB84B46424621460020CDF800A0FFF712
:10505000D7F9FBF78DF80446FCF7D8F92878401EFD
:10506000C1B2297009B9FFF7EFFBFCF7DFF9204661
:10507000FBF782F838042CD4BDE8FC5FFDF798BB41
:10508000FFF7E2FBBBF8000050B1FCF7CFF9204678
:10509000FBF772F8BDE8FC5F00E008E0FFF7A2BB99
:1050A000FCF7C4F92046BDE8FC5FFBF765B8FBF7E9
:1050B0005FF80446FCF7AAF92878401EC1B22970AF
:1050C00049B1FCF7B3F92046FBF756F846F62D60D8
:1050D0003080BDE8FC9FFFF7B7FBBBF8000038B19C
:1050E000FCF7A4F92046FBF747F8FFF77BFBEDE759
:1050F000FCF79CF92046FBF73FF8E7E7AC010020FE
:10510000040200207001002010B50446204600F083
:10511000D9FA94F83610490704D42046BDE8104067
:10512000FFF7CABA10BD00002DE9F04104460D4654
:10513000FBF71EF80646FCF769F900272F8094F864
:10514000360008286DD2DFE800F0040404040D39AD
:105150004959FCF76BF93046FBF70EF847F253104C
:1051600028805AE0344D2878401CC0B228700128AD
:1051700001D1FFF75BFBFCF759F93046FAF7FCFF6A
:1051800094F88A00401EC0B284F88A0020B984F8DE
:1051900036702046FFF7B8FFFAF7EAFF0446FCF73F
:1051A00035F92978491EC9B2297009B9FFF74CFBB6
:1051B000FCF73CF92046FAF7DFFF2EE094F88A006E
:1051C000401EC0B284F88A0010B9012084F836006D
:1051D000FCF72CF93046FAF7CFFF1EE094F88A006E
:1051E000401EC0B284F88A0010B9022084F836004C
:1051F000FCF71CF93046FAF7BFFF0EE094F88A007E
:10520000401EC0B284F88A0010B9032084F836002A
:10521000FCF70CF93046FAF7AFFFBDE8F041FDF7B7
:10522000C7BAFCF703F93046FAF7A6FF46F62D6039
:105230002880BDE8F0810000AC01002008B50448DA
:105240000068FDF7F9FF69460020FDF7FBFE08BD89
:10525000040200202DE9F84F04468A4616461F46F0
:10526000FAF786FF8046FCF7D1F8864D2878401C77
:10527000C0B22870012801D1FFF7D8FAFCF7D6F8A0
:105280004046FAF779FF0CB97F480468266400208D
:10529000388094F83600DFF8F48146F6C5590828BE
:1052A0007ED2DFE800F00404535304045353666CC9
:1052B000701C11D0761C6664FAF75AFF0446FCF79E
:1052C000A5F82878401EC0B2287060B3FCF7AEF88D
:1052D0002046FAF751FFC0E0FAF74AFF0446FCF710
:1052E00095F82878401EC1B2297049B1FCF79EF8A4
:1052F0002046FAF741FFA7F800900020BDE8F88F9C
:10530000FFF7A2FAB8F8000038B1FCF78FF8204692
:10531000FAF732FFFFF766FAEDE7FCF787F8204669
:10532000FAF72AFFE7E7FFF78FFAB8F8000038B17D
:10533000FCF77CF82046FAF71FFFFFF753FA8CE0E2
:10534000FCF774F82046FAF717FF86E094F834006B
:10535000072814D0666C701C32D0761C6664FAF78D
:1053600007FF0446FCF752F82878401EC0B22870A8
:10537000C8B3FCF75BF82046FAF7FEFE6DE00023A9
:105380001A46214618460096FFF73AF8666CFAF777
:10539000EFFE0446FCF73AF82878401EC0B200E061
:1053A00048E0287008B9FFF74FFAFCF73FF82046AD
:1053B000FAF7E2FE5FEA0A404FD4FDF7F9F94CE054
:1053C000FAF7D6FE0446FCF721F82978491EC9B23F
:1053D000297049B1FCF72AF82046FAF7CDFEA7F864
:1053E000009000208AE712E0FFF72EFAB8F80000DC
:1053F00038B1FCF71BF82046FAF7BEFEFFF7F2F9CA
:10540000EDE7FCF713F82046FAF7B6FEE7E7FFF7FB
:105410001BFAB8F8000038B1FCF708F82046FAF794
:10542000ABFEFFF7DFF918E0FCF700F82046FAF7CB
:10543000A3FE12E0FAF79CFE0446FBF7E7FF29788B
:10544000491EC9B2297051B1FBF7F0FF2046FAF7A7
:1054500093FE46F62D603880002630464EE7FFF773
:10546000F3F9B8F8000038B1FBF7E0FF2046FAF78F
:1054700083FEFFF7B7F9ECE7FBF7D8FF2046FAF712
:105480007BFEE6E7AC010020040200207001002052
:105490002DE9F04104460D46FAF76AFE8046FBF717
:1054A000B5FF3F4804B9046800683E4F84420BD101
:1054B000387848B1FBF7BAFF4046FAF75DFE46F68A
:1054C00063502880BDE8F0810020288094F83600E1
:1054D000012608285AD2DFE800F0042B36414C4C54
:1054E0004C4C3878401CC0B23870012801D1FFF70D
:1054F0009DF9FBF79BFF4046FAF73EFE042084F837
:10550000360084F88A602046FFF742F9FAF730FE49
:105510000446FBF77BFF3978491EC9B2397009B9D7
:10552000FFF792F9FBF782FF2046FAF725FE29E004
:10553000052084F8360084F88A60FBF777FF404640
:10554000FAF71AFE1EE0062084F8360084F88A6016
:10555000FBF76CFF4046FAF70FFE13E0072084F8D4
:10556000360084F88A60FBF761FF4046FAF704FED4
:1055700008E014F88A0F401C2070FBF757FF4046E4
:10558000FAF7FAFDBDE8F041FDF712B9FBF74EFF5F
:105590004046FAF7F1FD46F62D60288092E70000BC
:1055A00004020020AC01002010B500200022074BAF
:1055B000074C06E003EBC0010A608A80CA80401CE9
:1055C00080B221888842F5D310BD0000805C0020A5
:1055D00088AF0008F0B5384E002547F27E273468C2
:1055E000042A08D099B33746082A3F680F4410D0E0
:1055F000C76401651CE00A1B521E12F5803F04D9E6
:10560000C5640565C5611F80F0BDC164521C02659B
:105610000EE0826C0A44A2EB040CACF1010C8C4548
:1056200001D2C26400E0C764C16C0A1B02658164D8
:10563000224AC16C1288B1FBF2F402FB141189B248
:105640001F4A02EBC102918839B1116822E0FFE7DD
:10565000C5640565C5611F80F0BD45618561106049
:10566000012191801BE0CC6C3768E41B0C65076D51
:10567000A74208D94C690CB121460BE04561816114
:105680004861002106E08C698CB1846141616061F0
:10569000886100210029E6D19188491C9180D48835
:1056A00091888C4200D2D180C2611D80F0BD85619D
:1056B000416188611060ECE7E401002088AF0008D8
:1056C000805C002010B5C169002915D00024046554
:1056D0000A68824204D142690A6032B1946104E0EE
:1056E000836942695A6102B1936144618461C46112
:1056F000C4648888401E888010BD000010B500205A
:105700000022064B064C04E003EBC001CA80401C9B
:1057100080B221888842F7D310BD0000805C002051
:1057200088AF00082DE9F05FFAF722FD0446FBF789
:105730006DFE5D4A1178491CC9B21170012901D171
:10574000FFF774F8FBF772FE2046FAF715FDFBF73A
:10575000C1FE8346554E3068401C3060544909886C
:10576000B0FBF1F201FB120080B2524901EBC00024
:1057700004680025A8464FF003094FF0040A94B3CB
:10578000676994F83600082859D2DFE800F0580419
:105790005812582F583DE06C3168421A22658842F1
:1057A00005D184F836802046FFF7AEFC47E001259E
:1057B00045E0E06C3168421A2265884214D1C4F891
:1057C0005C80A4F86080FBF785FE20642046FEF72D
:1057D000E9FD2046FFF798FC84F8368084F8359080
:1057E00084F834802BE02CE0012528E0E06C31685F
:1057F000421A2265884205D184F836A02046FFF778
:1058000061FF1CE001251AE0E06C3168421A226554
:10581000884213D1C4F85C80A4F86080FBF75AFE7C
:1058200020642046FEF7BEFD2046FFF74BFF84F8BC
:1058300036A084F8359084F8348000E001253C4699
:1058400000E00125002D9AD0FBF744FEA0EB0B00F1
:1058500019490A68824200D20860FAF789FC0446B6
:10586000FBF7D4FD104A1178491EC9B2117031B14D
:10587000FBF7DCFD2046BDE8F05FFAF77DBCFEF7E4
:10588000E3FF0E48008840B1FBF7D0FD2046FAF751
:1058900073FCBDE8F05FFEF7A5BFFBF7C7FD204630
:1058A000BDE8F05FFAF768BCAC010020E40100201D
:1058B00088AF0008805C0020E80100207001002013
:1058C0001CB5084C002101AB6A460846FDF7BCFC3C
:1058D000BDF804000028F5D120780128F2D1FFF7A7
:1058E00021FFEFE764010020F0B589B004461B49B1
:1058F000002008601A490860FFF756FE194E30680C
:1059000050B1194F194938680968884208D247F2DE
:105910001320208009B0F0BD47F212202080F9E763
:10592000134D28781F2803D347F211202080F1E778
:10593000002106A80B22059116C00E480B4601ACAB
:10594000016830683A680FC42B78009300230A4A34
:105950000AA10F48FDF760FADCE70000E40100202F
:10596000E80100207CAF000884AF000870AF000899
:1059700078AF000880AF0008C158000875432F4F6A
:10598000532D494949205469636B205461736B005E
:10599000746300200023C362044A116819B10163D3
:1059A000C862106070470363FBE70000EC01002051
:1059B00070B58AB02B4900240C602B4A2B4B2C4924
:1059C00015682DB11B681268B3FBF2F20A6004E09F
:1059D0001A680A23B2FBF3F20A60264A09681160CA
:1059E00025490C6025490C600021254B254D06E01A
:1059F00003EBC1029480D4801460491C89B22A88C8
:105A00009142F5D3204C216851B1204E204A316893
:105A10001268914208D247F2483101800AB070BD45
:105A200047F247310180F9E71A4D29781F2903D33E
:105A300047F246310180F1E700210B220890CDE9C1
:105A40000612154805910B460168206801AC3268C2
:105A50000FC42B7800930023104A11A11648FDF7BC
:105A6000DBF9DBE7EC0100208CAF000874AF000825
:105A7000FC01002000020020F8010020F4010020B9
:105A8000085F00209CAF000890AF000898AF0008A6
:105A900070AF00088AAF000894AF0008995B000857
:105AA00075432F4F532D4949492054696D65722024
:105AB0005461736B000000003C64002070B502224A
:105AC00080F82A20274C0129236815D0016AB9B132
:105AD00019448161244A81691288B1FBF2F502FB05
